{
  "contractName": "HelloWorld",
  "abi": [
    {
      "inputs": [],
      "payable": false,
      "stateMutability": "nonpayable",
      "type": "constructor"
    },
    {
      "constant": true,
      "inputs": [],
      "name": "getMessage",
      "outputs": [
        {
          "name": "",
          "type": "string"
        }
      ],
      "payable": false,
      "stateMutability": "view",
      "type": "function"
    },
    {
      "constant": true,
      "inputs": [],
      "name": "getLastCaller",
      "outputs": [
        {
          "name": "",
          "type": "address"
        }
      ],
      "payable": false,
      "stateMutability": "view",
      "type": "function"
    },
    {
      "constant": true,
      "inputs": [],
      "name": "getCreator",
      "outputs": [
        {
          "name": "",
          "type": "address"
        }
      ],
      "payable": false,
      "stateMutability": "view",
      "type": "function"
    },
    {
      "constant": true,
      "inputs": [],
      "name": "getTotalGas",
      "outputs": [
        {
          "name": "",
          "type": "uint256"
        }
      ],
      "payable": false,
      "stateMutability": "view",
      "type": "function"
    },
    {
      "constant": false,
      "inputs": [
        {
          "name": "newMessage",
          "type": "string"
        }
      ],
      "name": "setMessage",
      "outputs": [],
      "payable": false,
      "stateMutability": "nonpayable",
      "type": "function"
    }
  ],
  "bytecode": "0x608060405234801561001057600080fd5b50326000806101000a81548173ffffffffffffffffffffffffffffffffffffffff021916908373ffffffffffffffffffffffffffffffffffffffff1602179055503a6003819055506040805190810160405280600b81526020017f68656c6c6f20776f726c64000000000000000000000000000000000000000000815250600290805190602001906100a39291906100a9565b5061014e565b828054600181600116156101000203166002900490600052602060002090601f016020900481019282601f106100ea57805160ff1916838001178555610118565b82800160010185558215610118579182015b828111156101175782518255916020019190600101906100fc565b5b5090506101259190610129565b5090565b61014b91905b8082111561014757600081600090555060010161012f565b5090565b90565b6104768061015d6000396000f30060806040526004361061006d576000357c0100000000000000000000000000000000000000000000000000000000900463ffffffff1680630ee2cb1014610072578063368b8772146100c957806364326c7114610132578063880b36e71461015d578063ce6d41de146101b4575b600080fd5b34801561007e57600080fd5b50610087610244565b604051808273ffffffffffffffffffffffffffffffffffffffff1673ffffffffffffffffffffffffffffffffffffffff16815260200191505060405180910390f35b3480156100d557600080fd5b50610130600480360381019080803590602001908201803590602001908080601f016020809104026020016040519081016040528093929190818152602001838380828437820191505050505050919291929050505061026d565b005b34801561013e57600080fd5b506101476102cf565b6040518082815260200191505060405180910390f35b34801561016957600080fd5b506101726102d9565b604051808273ffffffffffffffffffffffffffffffffffffffff1673ffffffffffffffffffffffffffffffffffffffff16815260200191505060405180910390f35b3480156101c057600080fd5b506101c9610303565b6040518080602001828103825283818151815260200191508051906020019080838360005b838110156102095780820151818401526020810190506101ee565b50505050905090810190601f1680156102365780820380516001836020036101000a031916815260200191505b509250505060405180910390f35b60008060009054906101000a900473ffffffffffffffffffffffffffffffffffffffff16905090565b80600290805190602001906102839291906103a5565b5032600160006101000a81548173ffffffffffffffffffffffffffffffffffffffff021916908373ffffffffffffffffffffffffffffffffffffffff1602179055503a60038190555050565b6000600354905090565b6000600160009054906101000a900473ffffffffffffffffffffffffffffffffffffffff16905090565b606060028054600181600116156101000203166002900480601f01602080910402602001604051908101604052809291908181526020018280546001816001161561010002031660029004801561039b5780601f106103705761010080835404028352916020019161039b565b820191906000526020600020905b81548152906001019060200180831161037e57829003601f168201915b5050505050905090565b828054600181600116156101000203166002900490600052602060002090601f016020900481019282601f106103e657805160ff1916838001178555610414565b82800160010185558215610414579182015b828111156104135782518255916020019190600101906103f8565b5b5090506104219190610425565b5090565b61044791905b8082111561044357600081600090555060010161042b565b5090565b905600a165627a7a723058208fceca34fc633f1635d2b46e94e31a27aaf70893cf98bdef51dfdde61bd248d00029",
  "source": "pragma solidity ^0.4.22;\n\n\ncontract HelloWorld {\n\n  address private creator;\n  address private lastCaller;\n  string private message;\n  uint private totalGas;\n\n  // constructor\n  constructor() {\n    creator = tx.origin;\n    totalGas = tx.gasprice;\n    message = 'hello world';\n  }\n\n  // getter functions\n  function getMessage() constant returns (string) {\n    return message;\n  }\n\n  function getLastCaller() constant returns (address) {\n    return lastCaller;\n  }\n\n  function getCreator() constant returns (address) {\n    return creator;\n  }\n\n  function getTotalGas() constant returns (uint) {\n    return totalGas;\n  }\n\n  // setter function\n  function setMessage(string newMessage) {\n    message = newMessage;\n    lastCaller = tx.origin;\n    totalGas = tx.gasprice;\n  }\n\n}\n",
  "sourcePath": "D:\\GitHub\\truffle-tutorial\\contracts\\HelloWorld.sol",
  "compiler": {
    "name": "solc",
    "version": "0.4.24+commit.e67f0147.Emscripten.clang"
  },
  "schemaVersion": "2.0.1",
  "updatedAt": "2018-11-04T15:34:18.423Z"
}